{
  "address": "0x423Ad9705D0bb15386aC08231eCBe16C0C20C3e4",
  "abi": [
    {
      "inputs": [
        {
          "internalType": "address",
          "name": "_owner",
          "type": "address"
        }
      ],
      "stateMutability": "nonpayable",
      "type": "constructor"
    },
    {
      "anonymous": false,
      "inputs": [
        {
          "indexed": true,
          "internalType": "address",
          "name": "greetingSetter",
          "type": "address"
        },
        {
          "indexed": false,
          "internalType": "string",
          "name": "newGreeting",
          "type": "string"
        },
        {
          "indexed": false,
          "internalType": "bool",
          "name": "premium",
          "type": "bool"
        },
        {
          "indexed": false,
          "internalType": "uint256",
          "name": "value",
          "type": "uint256"
        }
      ],
      "name": "GreetingChange",
      "type": "event"
    },
    {
      "inputs": [],
      "name": "greeting",
      "outputs": [
        {
          "internalType": "string",
          "name": "",
          "type": "string"
        }
      ],
      "stateMutability": "view",
      "type": "function"
    },
    {
      "inputs": [],
      "name": "owner",
      "outputs": [
        {
          "internalType": "address",
          "name": "",
          "type": "address"
        }
      ],
      "stateMutability": "view",
      "type": "function"
    },
    {
      "inputs": [],
      "name": "premium",
      "outputs": [
        {
          "internalType": "bool",
          "name": "",
          "type": "bool"
        }
      ],
      "stateMutability": "view",
      "type": "function"
    },
    {
      "inputs": [
        {
          "internalType": "string",
          "name": "_newGreeting",
          "type": "string"
        }
      ],
      "name": "setGreeting",
      "outputs": [],
      "stateMutability": "payable",
      "type": "function"
    },
    {
      "inputs": [
        {
          "internalType": "address",
          "name": "_title",
          "type": "address"
        }
      ],
      "name": "setTitle",
      "outputs": [],
      "stateMutability": "nonpayable",
      "type": "function"
    },
    {
      "inputs": [],
      "name": "title",
      "outputs": [
        {
          "internalType": "address",
          "name": "",
          "type": "address"
        }
      ],
      "stateMutability": "view",
      "type": "function"
    },
    {
      "inputs": [],
      "name": "totalCounter",
      "outputs": [
        {
          "internalType": "uint256",
          "name": "",
          "type": "uint256"
        }
      ],
      "stateMutability": "view",
      "type": "function"
    },
    {
      "inputs": [
        {
          "internalType": "address",
          "name": "",
          "type": "address"
        }
      ],
      "name": "userGreetingCounter",
      "outputs": [
        {
          "internalType": "uint256",
          "name": "",
          "type": "uint256"
        }
      ],
      "stateMutability": "view",
      "type": "function"
    },
    {
      "inputs": [],
      "name": "withdraw",
      "outputs": [],
      "stateMutability": "nonpayable",
      "type": "function"
    },
    {
      "stateMutability": "payable",
      "type": "receive"
    }
  ],
  "transactionHash": "0xb9a56f3df1f777d81e344b21e4c9e570a9b3c905a2ee3bbc8d0ff25196bc2233",
  "args": [
    "0xb5a589f73Bf716baF7cb4fe1C8D4D0b7D34a5dE2"
  ],
  "numDeployments": 1,
  "solcInputHash": "38e1cbed7c4e11633b1e2314d4d51ab2",
  "bytecode": "0x610100604052603260a08181529062000b1960c039600090610021908261010e565b506001805460ff19169055600060025534801561003d57600080fd5b5060405162000b4b38038062000b4b83398101604081905261005e916101cd565b6001600160a01b03166080526101fd565b634e487b7160e01b600052604160045260246000fd5b600181811c9082168061009957607f821691505b6020821081036100b957634e487b7160e01b600052602260045260246000fd5b50919050565b601f82111561010957600081815260208120601f850160051c810160208610156100e65750805b601f850160051c820191505b81811015610105578281556001016100f2565b5050505b505050565b81516001600160401b038111156101275761012761006f565b61013b816101358454610085565b846100bf565b602080601f83116001811461017057600084156101585750858301515b600019600386901b1c1916600185901b178555610105565b600085815260208120601f198616915b8281101561019f57888601518255948401946001909101908401610180565b50858210156101bd5787850151600019600388901b60f8161c191681555b5050505050600190811b01905550565b6000602082840312156101df57600080fd5b81516001600160a01b03811681146101f657600080fd5b9392505050565b6080516108eb6200022e6000396000818161011c015281816101f90152818161025f015261032301526108eb6000f3fe60806040526004361061008a5760003560e01c806397feba9d1161005957806397feba9d1461013e578063a413686214610162578063cea49c3c14610175578063e0a73a93146101a2578063ef690cc0146101cc57600080fd5b80633ccfd60b146100965780634a79d50c146100ad5780637f700ac4146100ea5780638da5cb5b1461010a57600080fd5b3661009157005b600080fd5b3480156100a257600080fd5b506100ab6101ee565b005b3480156100b957600080fd5b506004546100cd906001600160a01b031681565b6040516001600160a01b0390911681526020015b60405180910390f35b3480156100f657600080fd5b506100ab610105366004610572565b610318565b34801561011657600080fd5b506100cd7f000000000000000000000000000000000000000000000000000000000000000081565b34801561014a57600080fd5b5061015460025481565b6040519081526020016100e1565b6100ab6101703660046105b8565b6103a2565b34801561018157600080fd5b50610154610190366004610572565b60036020526000908152604090205481565b3480156101ae57600080fd5b506001546101bc9060ff1681565b60405190151581526020016100e1565b3480156101d857600080fd5b506101e1610473565b6040516100e191906106af565b336001600160a01b037f0000000000000000000000000000000000000000000000000000000000000000161461025b5760405162461bcd60e51b815260206004820152600d60248201526c2737ba103a34329027bbb732b960991b60448201526064015b60405180910390fd5b60007f00000000000000000000000000000000000000000000000000000000000000006001600160a01b03164760405160006040518083038185875af1925050503d80600081146102c8576040519150601f19603f3d011682016040523d82523d6000602084013e6102cd565b606091505b50509050806103155760405162461bcd60e51b81526020600482015260146024820152732330b4b632b2103a379039b2b7321022ba3432b960611b6044820152606401610252565b50565b336001600160a01b037f000000000000000000000000000000000000000000000000000000000000000016146103805760405162461bcd60e51b815260206004820152600d60248201526c2737ba103a34329027bbb732b960991b6044820152606401610252565b600480546001600160a01b0319166001600160a01b0392909216919091179055565b6103c5604051806060016040528060218152602001610895602191398233610501565b60006103d1828261074a565b506001600260008282546103e5919061080a565b909155505033600090815260036020526040812080546001929061040a90849061080a565b90915550503415610426576001805460ff191681179055610431565b6001805460ff191690555b60405133907f94cbd7e04dca26a7667654f6448b2ca0a40fec602118dc5fd8c82b9cf3c645ad906104689084903480151591610831565b60405180910390a250565b60008054610480906106c2565b80601f01602080910402602001604051908101604052809291908181526020018280546104ac906106c2565b80156104f95780601f106104ce576101008083540402835291602001916104f9565b820191906000526020600020905b8154815290600101906020018083116104dc57829003601f168201915b505050505081565b61054883838360405160240161051993929190610856565b60408051601f198184030181529190526020810180516001600160e01b03166395ed019560e01b17905261054d565b505050565b6103158160006a636f6e736f6c652e6c6f679050600080835160208501845afa505050565b60006020828403121561058457600080fd5b81356001600160a01b038116811461059b57600080fd5b9392505050565b634e487b7160e01b600052604160045260246000fd5b6000602082840312156105ca57600080fd5b813567ffffffffffffffff808211156105e257600080fd5b818401915084601f8301126105f657600080fd5b813581811115610608576106086105a2565b604051601f8201601f19908116603f01168101908382118183101715610630576106306105a2565b8160405282815287602084870101111561064957600080fd5b826020860160208301376000928101602001929092525095945050505050565b6000815180845260005b8181101561068f57602081850181015186830182015201610673565b506000602082860101526020601f19601f83011685010191505092915050565b60208152600061059b6020830184610669565b600181811c908216806106d657607f821691505b6020821081036106f657634e487b7160e01b600052602260045260246000fd5b50919050565b601f82111561054857600081815260208120601f850160051c810160208610156107235750805b601f850160051c820191505b818110156107425782815560010161072f565b505050505050565b815167ffffffffffffffff811115610764576107646105a2565b6107788161077284546106c2565b846106fc565b602080601f8311600181146107ad57600084156107955750858301515b600019600386901b1c1916600185901b178555610742565b600085815260208120601f198616915b828110156107dc578886015182559484019460019091019084016107bd565b50858210156107fa5787850151600019600388901b60f8161c191681555b5050505050600190811b01905550565b8082018082111561082b57634e487b7160e01b600052601160045260246000fd5b92915050565b6060815260006108446060830186610669565b93151560208301525060400152919050565b6060815260006108696060830186610669565b828103602084015261087b8186610669565b91505060018060a01b038316604083015294935050505056fe53657474696e67206e6577206772656574696e6720272573272066726f6d202573a2646970667358221220514b2569821d70420074a2d880abd1a92453902ea162fbc08b5ee3afff895e5f64736f6c634300081100334865792c20697473204f6b617920796f7520617265204275696c64696e6720556e73746f707061626c652041707073212121",
  "devdoc": {
    "author": "BuidlGuidl",
    "kind": "dev",
    "methods": {
      "setGreeting(string)": {
        "params": {
          "_newGreeting": "(string memory) - new greeting to save on the contract"
        }
      }
    },
    "version": 1
  },
  "userdoc": {
    "kind": "user",
    "methods": {
      "setGreeting(string)": {
        "notice": "Function that allows anyone to change the state variable \"greeting\" of the contract and increase the counters"
      },
      "withdraw()": {
        "notice": "Function that allows the owner to withdraw all the Ether in the contract The function can only be called by the owner of the contract as defined by the isOwner modifier"
      }
    },
    "notice": "A smart contract that allows changing a state variable of the contract and tracking the changes It also allows the owner to withdraw the Ether in the contract",
    "version": 1
  },
  "storageLayout": {
    "storage": [
      {
        "astId": 8,
        "contract": "contracts/YourContract.sol:YourContract",
        "label": "greeting",
        "offset": 0,
        "slot": "0",
        "type": "t_string_storage"
      },
      {
        "astId": 11,
        "contract": "contracts/YourContract.sol:YourContract",
        "label": "premium",
        "offset": 0,
        "slot": "1",
        "type": "t_bool"
      },
      {
        "astId": 14,
        "contract": "contracts/YourContract.sol:YourContract",
        "label": "totalCounter",
        "offset": 0,
        "slot": "2",
        "type": "t_uint256"
      },
      {
        "astId": 18,
        "contract": "contracts/YourContract.sol:YourContract",
        "label": "userGreetingCounter",
        "offset": 0,
        "slot": "3",
        "type": "t_mapping(t_address,t_uint256)"
      },
      {
        "astId": 20,
        "contract": "contracts/YourContract.sol:YourContract",
        "label": "title",
        "offset": 0,
        "slot": "4",
        "type": "t_address"
      }
    ],
    "types": {
      "t_address": {
        "encoding": "inplace",
        "label": "address",
        "numberOfBytes": "20"
      },
      "t_bool": {
        "encoding": "inplace",
        "label": "bool",
        "numberOfBytes": "1"
      },
      "t_mapping(t_address,t_uint256)": {
        "encoding": "mapping",
        "key": "t_address",
        "label": "mapping(address => uint256)",
        "numberOfBytes": "32",
        "value": "t_uint256"
      },
      "t_string_storage": {
        "encoding": "bytes",
        "label": "string",
        "numberOfBytes": "32"
      },
      "t_uint256": {
        "encoding": "inplace",
        "label": "uint256",
        "numberOfBytes": "32"
      }
    }
  }
}